S01A000041544D4547413132385F456C657661746F722E737265631F
S113000045C0000060C000005EC000005CC000008D
S11300105AC0000024C2000034C2000044C20000E0
S113002055C2000050C000004EC000004CC000008B
S11300304AC0000048C000001CC1000044C00000C9
S113004042C0000040C000003EC000003CC00000B0
S11300503AC0000038C0000036C0000034C00000C0
S113006032C0000030C000002EC000002CC00000D0
S11300702AC0000028C0000026C0000024C00000E0
S113008022C0000020C000001EC0000011241FBEBA
S1130090CFEFD0E1DEBFCDBF11E0A0E0B1E0E6EFED
S11300A0F4E000E00BBF02C007900D92AC30B10742
S11300B0D9F721E0ACE0B1E001C01D92AF32B20744
S11300C0E1F7D2D016C29CCF8FEF8ABB8BBB8FE7F0
S11300D084BB85BB8FE081BB12BA12B880EF83B9B1
S11300E008958FEF8ABF80EF89BF089584E087BFAA
S11300F01FBC8EBD86E997EE9DBD8CBD80E88FBF89
S11301000895809101018230C1F1883009F467C0FB
S1130110813009F09AC08BB38C608BBB8091010154
S113012080930C0180911C01813041F48BB38E7F4C
S11301308BBB88E08093010110921C0180911B010C
S1130140813041F48BB38D7F8BBB88E080930101B8
S113015010921B0180911D01813049F482E080934B
S113016000011092200110921F0110921D0181E0E4
S113017082BB8091030185BB68C08BB383608BBB5A
S11301808091010180930C0180911C01813049F41C
S113019082E0809300011092200110921F011092BE
S11301A01C0180912301813041F48BB38B7F8BBB85
S11301B088E0809301011092230180911D01813018
S11301C041F48BB3877F8BBB88E08093010110924D
S11301D01D0181E082BB8091040185BB36C0809102
S11301E026019091270184369105A8F080910C0195
S11301F0813029F492E090930101909300018230C0
S113020031F481E08093010182E080930001109237
S113021027011092260180912401909125010A97CB
S113022078F081E082BB8FEF85BB809124019091AF
S11302302501449750F0109225011092240105C025
S113024081E082BB80910A0185BB809100018230EC
S113025039F48BB38F768BBB8BB380668BBB0895DD
S11302608BB38F708BBB08952FDF3BDF3FDF49DFFC
S1130270FECF1F920F920FB60F9211242F933F932C
S11302808F939F9380910E01813049F5209117013E
S1130290309118012F5F3F4F3093180120931701BD
S11302A023303105E0F0813091F480910D0181110A
S11302B00EC081E080931C0180910F019091100188
S11302C001969093100180930F0110920E0180917A
S11302D00E0180930D011092180110921701809164
S11302E01601813049F520912C0130912D012F5FA9
S11302F03F4F30932D0120932C0123303105E0F042
S1130300813091F48091130181110EC081E08093BA
S11303101B01809121019091220101969093220169
S1130320809321011092160180911601809313018C
S113033010922D0110922C0180912E01813049F5EB
S113034020911401309115012F5F3F4F3093150117
S11303502093140123303105E0F0813091F4809131
S1130360110181110EC081E0809323018091190154
S113037090911A01019690931A0180931901109299
S11303802E0180912E01809311011092150110927B
S1130390140180911201813049F520912801309196
S11303A029012F5F3F4F30932901209328012330E7
S11303B03105E0F0813091F480911E0181110EC06D
S11303C081E080931D0180912A0190912B01019677
S11303D090932B0180932A011092120180911201B3
S11303E080931E011092290110922801809101012D
S11303F0883091F480912601909127010196909381
S11304002701809326018091240190912501019672
S1130410909325018093240180910001823091F40E
S113042080911F0190912001019690932001809367
S11304301F01C29738F081E08093000110922001DF
S113044010921F0186E997EE9DBD8CBD9F918F91FF
S11304503F912F910F900FBE0F901F9018951F92F0
S11304600F920FB60F9211248F9380910101813066
S113047011F480930E018F910F900FBE0F901F9077
S113048018951F920F920FB60F9211248F9380919B
S11304900101813011F4809316018F910F900FBEEA
S11304A00F901F9018951F920F920FB60F92112460
S11304B08F9380910101823019F481E080932E01A1
S11304C08F910F900FBE0F901F9018951F920F924F
S11304D00FB60F9211248F9380910101823019F489
S11304E081E0809312018F910F900FBE0F901F90A7
S10904F01895F894FFCFFB
S10F04F60101C0F9A4B0999282F8809032
S9030000FC
